:100000000C942A000C9447000C9447000C94470071
:100010000C9447000C9447000C9447000C94470044
:100020000C940E010C9447000C9474000C9447003F
:100030000C9447000C9447000C9447000C94470024
:100040000C9447000C9447000C9447000C94470014
:100050000C94470011241FBECFE5D8E0DEBFCDBF12
:1000600010E0A0E6B0E0E2EAF2E002C005900D92F6
:10007000A836B107D9F710E0A8E6B0E001C01D929C
:10008000AC3AB107E1F70E9449000C944F010C947F
:1000900000000E9455008CE795E10E9405010E9436
:1000A0006B0078940E94DE00FFCF87B3806B87BB24
:1000B0008DB180678DB9709A08958FB9779BFECF07
:1000C0000895C49AC49880E01FB8779BFECF8F5FD5
:1000D0008330D1F7089583B78B6083BF87E28CBFED
:1000E00089B7826089BF08951F920F920FB60F9251
:1000F00011240F931F932F933F934F935F936F930D
:100100007F938F939F93AF93BF93CF93DF93EF939F
:10011000FF9380916800883020F01092690010925F
:10012000680000916900C02FD0E010916800A12FF5
:10013000B0E0FE0183E0EE0FFF1F8A95E1F7EA0FC2
:10014000FB1FE459FF4FE081E13071F4A05ABF4F2B
:100150008C9180958FB9779BFECFC05ADF4F8881F5
:100160008FB9779BFECF08C0EE2341F41FB8779B71
:10017000FECF1FB8779BFECF0E946100802F8F5F5C
:1001800080936900883028F0109269001F5F1093F7
:100190006800FF91EF91DF91CF91BF91AF919F9157
:1001A0008F917F916F915F914F913F912F911F910F
:1001B0000F910F900FBE0F901F90189524E730E01D
:1001C00080E090E00BC01192E217F307E1F701968F
:1001D0009F01285F3F4F8830910549F0FC0143E0C3
:1001E000EE0FFF1F4A95E1F7E459FF4FECCF08955A
:1001F000E82FF0E053E0EE0FFF1F5A95E1F7E60F0E
:10020000F11DE459FF4F408308952EB52D602EBD9A
:100210009BBD8ABD89B7886089BF08951F920F92E0
:100220000FB60F9211242F933F934F935F936F93C9
:100230007F938F939F93AF93BF93EF93FF9380919F
:100240006B00883038F010926B0080916A008F5FED
:1002500080936A0080916A00883020F010926A00D2
:100260000E94DE0080916B0060916A0041E00E9474
:10027000F80080916B008F5F80936B00FF91EF918E
:10028000BF91AF919F918F917F916F915F914F91AE
:100290003F912F910F900FBE0F901F901895F894DB
:0202A000FFCF8E
:0802A200010204081020408055
:00000001FF
